{
	"age.sol": {
		"practice": {
			"abi": [
				{
					"inputs": [],
					"name": "age",
					"outputs": [
						{
							"internalType": "uint256",
							"name": "",
							"type": "uint256"
						}
					],
					"stateMutability": "view",
					"type": "function"
				},
				{
					"inputs": [],
					"name": "getname",
					"outputs": [
						{
							"internalType": "string",
							"name": "",
							"type": "string"
						}
					],
					"stateMutability": "view",
					"type": "function"
				},
				{
					"inputs": [],
					"name": "name",
					"outputs": [
						{
							"internalType": "string",
							"name": "",
							"type": "string"
						}
					],
					"stateMutability": "view",
					"type": "function"
				},
				{
					"inputs": [
						{
							"internalType": "uint256",
							"name": "_age",
							"type": "uint256"
						}
					],
					"name": "update",
					"outputs": [],
					"stateMutability": "nonpayable",
					"type": "function"
				}
			],
			"devdoc": {
				"kind": "dev",
				"methods": {},
				"version": 1
			},
			"evm": {
				"assembly": "    /* \"age.sol\":63:304  contract practice {\r... */\n  mstore(0x40, 0x80)\n    /* \"age.sol\":88:116  string public name=\"Sadhana\" */\n  mload(0x40)\n  dup1\n  0x40\n  add\n  0x40\n  mstore\n  dup1\n  0x07\n  dup2\n  mstore\n  0x20\n  add\n  0x53616468616e6100000000000000000000000000000000000000000000000000\n  dup2\n  mstore\n  pop\n  0x00\n  swap1\n  dup1\n  mload\n  swap1\n  0x20\n  add\n  swap1\n  tag_1\n  swap3\n  swap2\n  swap1\n  tag_2\n  jump\t// in\ntag_1:\n  pop\n    /* \"age.sol\":139:141  20 */\n  0x14\n    /* \"age.sol\":123:141  uint public age=20 */\n  0x01\n  sstore\n    /* \"age.sol\":63:304  contract practice {\r... */\n  callvalue\n  dup1\n  iszero\n  tag_3\n  jumpi\n  0x00\n  dup1\n  revert\ntag_3:\n  pop\n  jump(tag_4)\ntag_2:\n  dup3\n  dup1\n  sload\n  tag_5\n  swap1\n  tag_6\n  jump\t// in\ntag_5:\n  swap1\n  0x00\n  mstore\n  keccak256(0x00, 0x20)\n  swap1\n  0x1f\n  add\n  0x20\n  swap1\n  div\n  dup2\n  add\n  swap3\n  dup3\n  tag_8\n  jumpi\n  0x00\n  dup6\n  sstore\n  jump(tag_7)\ntag_8:\n  dup3\n  0x1f\n  lt\n  tag_9\n  jumpi\n  dup1\n  mload\n  not(0xff)\n  and\n  dup4\n  dup1\n  add\n  or\n  dup6\n  sstore\n  jump(tag_7)\ntag_9:\n  dup3\n  dup1\n  add\n  0x01\n  add\n  dup6\n  sstore\n  dup3\n  iszero\n  tag_7\n  jumpi\n  swap2\n  dup3\n  add\ntag_10:\n  dup3\n  dup2\n  gt\n  iszero\n  tag_11\n  jumpi\n  dup3\n  mload\n  dup3\n  sstore\n  swap2\n  0x20\n  add\n  swap2\n  swap1\n  0x01\n  add\n  swap1\n  jump(tag_10)\ntag_11:\ntag_7:\n  pop\n  swap1\n  pop\n  tag_12\n  swap2\n  swap1\n  tag_13\n  jump\t// in\ntag_12:\n  pop\n  swap1\n  jump\t// out\ntag_13:\ntag_14:\n  dup1\n  dup3\n  gt\n  iszero\n  tag_15\n  jumpi\n  0x00\n  dup2\n  0x00\n  swap1\n  sstore\n  pop\n  0x01\n  add\n  jump(tag_14)\ntag_15:\n  pop\n  swap1\n  jump\t// out\n    /* \"#utility.yul\":7:327   */\ntag_6:\n  0x00\n    /* \"#utility.yul\":88:89   */\n  0x02\n    /* \"#utility.yul\":82:86   */\n  dup3\n    /* \"#utility.yul\":78:90   */\n  div\n    /* \"#utility.yul\":68:90   */\n  swap1\n  pop\n    /* \"#utility.yul\":135:136   */\n  0x01\n    /* \"#utility.yul\":129:133   */\n  dup3\n    /* \"#utility.yul\":125:137   */\n  and\n    /* \"#utility.yul\":156:174   */\n  dup1\n    /* \"#utility.yul\":146:148   */\n  tag_18\n  jumpi\n    /* \"#utility.yul\":212:216   */\n  0x7f\n    /* \"#utility.yul\":204:210   */\n  dup3\n    /* \"#utility.yul\":200:217   */\n  and\n    /* \"#utility.yul\":190:217   */\n  swap2\n  pop\n    /* \"#utility.yul\":146:148   */\ntag_18:\n    /* \"#utility.yul\":274:276   */\n  0x20\n    /* \"#utility.yul\":266:272   */\n  dup3\n    /* \"#utility.yul\":263:277   */\n  lt\n    /* \"#utility.yul\":243:261   */\n  dup2\n    /* \"#utility.yul\":240:278   */\n  eq\n    /* \"#utility.yul\":237:239   */\n  iszero\n  tag_19\n  jumpi\n    /* \"#utility.yul\":293:311   */\n  tag_20\n  tag_21\n  jump\t// in\ntag_20:\n    /* \"#utility.yul\":237:239   */\ntag_19:\n    /* \"#utility.yul\":58:327   */\n  pop\n  swap2\n  swap1\n  pop\n  jump\t// out\n    /* \"#utility.yul\":333:513   */\ntag_21:\n    /* \"#utility.yul\":381:458   */\n  0x4e487b7100000000000000000000000000000000000000000000000000000000\n    /* \"#utility.yul\":378:379   */\n  0x00\n    /* \"#utility.yul\":371:459   */\n  mstore\n    /* \"#utility.yul\":478:482   */\n  0x22\n    /* \"#utility.yul\":475:476   */\n  0x04\n    /* \"#utility.yul\":468:483   */\n  mstore\n    /* \"#utility.yul\":502:506   */\n  0x24\n    /* \"#utility.yul\":499:500   */\n  0x00\n    /* \"#utility.yul\":492:507   */\n  revert\n    /* \"age.sol\":63:304  contract practice {\r... */\ntag_4:\n  dataSize(sub_0)\n  dup1\n  dataOffset(sub_0)\n  0x00\n  codecopy\n  0x00\n  return\nstop\n\nsub_0: assembly {\n        /* \"age.sol\":63:304  contract practice {\r... */\n      mstore(0x40, 0x80)\n      callvalue\n      dup1\n      iszero\n      tag_1\n      jumpi\n      0x00\n      dup1\n      revert\n    tag_1:\n      pop\n      jumpi(tag_2, lt(calldatasize, 0x04))\n      shr(0xe0, calldataload(0x00))\n      dup1\n      0x06fdde03\n      eq\n      tag_3\n      jumpi\n      dup1\n      0x262a9dff\n      eq\n      tag_4\n      jumpi\n      dup1\n      0x82ab890a\n      eq\n      tag_5\n      jumpi\n      dup1\n      0xc6ea59b9\n      eq\n      tag_6\n      jumpi\n    tag_2:\n      0x00\n      dup1\n      revert\n        /* \"age.sol\":88:116  string public name=\"Sadhana\" */\n    tag_3:\n      tag_7\n      tag_8\n      jump\t// in\n    tag_7:\n      mload(0x40)\n      tag_9\n      swap2\n      swap1\n      tag_10\n      jump\t// in\n    tag_9:\n      mload(0x40)\n      dup1\n      swap2\n      sub\n      swap1\n      return\n        /* \"age.sol\":123:141  uint public age=20 */\n    tag_4:\n      tag_11\n      tag_12\n      jump\t// in\n    tag_11:\n      mload(0x40)\n      tag_13\n      swap2\n      swap1\n      tag_14\n      jump\t// in\n    tag_13:\n      mload(0x40)\n      dup1\n      swap2\n      sub\n      swap1\n      return\n        /* \"age.sol\":148:209  function update(uint _age) public {\r... */\n    tag_5:\n      tag_15\n      0x04\n      dup1\n      calldatasize\n      sub\n      dup2\n      add\n      swap1\n      tag_16\n      swap2\n      swap1\n      tag_17\n      jump\t// in\n    tag_16:\n      tag_18\n      jump\t// in\n    tag_15:\n      stop\n        /* \"age.sol\":215:297  function getname()public view returns(string memory){\r... */\n    tag_6:\n      tag_19\n      tag_20\n      jump\t// in\n    tag_19:\n      mload(0x40)\n      tag_21\n      swap2\n      swap1\n      tag_10\n      jump\t// in\n    tag_21:\n      mload(0x40)\n      dup1\n      swap2\n      sub\n      swap1\n      return\n        /* \"age.sol\":88:116  string public name=\"Sadhana\" */\n    tag_8:\n      0x00\n      dup1\n      sload\n      tag_22\n      swap1\n      tag_23\n      jump\t// in\n    tag_22:\n      dup1\n      0x1f\n      add\n      0x20\n      dup1\n      swap2\n      div\n      mul\n      0x20\n      add\n      mload(0x40)\n      swap1\n      dup2\n      add\n      0x40\n      mstore\n      dup1\n      swap3\n      swap2\n      swap1\n      dup2\n      dup2\n      mstore\n      0x20\n      add\n      dup3\n      dup1\n      sload\n      tag_24\n      swap1\n      tag_23\n      jump\t// in\n    tag_24:\n      dup1\n      iszero\n      tag_25\n      jumpi\n      dup1\n      0x1f\n      lt\n      tag_26\n      jumpi\n      0x0100\n      dup1\n      dup4\n      sload\n      div\n      mul\n      dup4\n      mstore\n      swap2\n      0x20\n      add\n      swap2\n      jump(tag_25)\n    tag_26:\n      dup3\n      add\n      swap2\n      swap1\n      0x00\n      mstore\n      keccak256(0x00, 0x20)\n      swap1\n    tag_27:\n      dup2\n      sload\n      dup2\n      mstore\n      swap1\n      0x01\n      add\n      swap1\n      0x20\n      add\n      dup1\n      dup4\n      gt\n      tag_27\n      jumpi\n      dup3\n      swap1\n      sub\n      0x1f\n      and\n      dup3\n      add\n      swap2\n    tag_25:\n      pop\n      pop\n      pop\n      pop\n      pop\n      dup2\n      jump\t// out\n        /* \"age.sol\":123:141  uint public age=20 */\n    tag_12:\n      sload(0x01)\n      dup2\n      jump\t// out\n        /* \"age.sol\":148:209  function update(uint _age) public {\r... */\n    tag_18:\n        /* \"age.sol\":197:201  _age */\n      dup1\n        /* \"age.sol\":193:196  age */\n      0x01\n        /* \"age.sol\":193:201  age=_age */\n      dup2\n      swap1\n      sstore\n      pop\n        /* \"age.sol\":148:209  function update(uint _age) public {\r... */\n      pop\n      jump\t// out\n        /* \"age.sol\":215:297  function getname()public view returns(string memory){\r... */\n    tag_20:\n        /* \"age.sol\":253:266  string memory */\n      0x60\n        /* \"age.sol\":285:289  name */\n      0x00\n        /* \"age.sol\":278:289  return name */\n      dup1\n      sload\n      tag_30\n      swap1\n      tag_23\n      jump\t// in\n    tag_30:\n      dup1\n      0x1f\n      add\n      0x20\n      dup1\n      swap2\n      div\n      mul\n      0x20\n      add\n      mload(0x40)\n      swap1\n      dup2\n      add\n      0x40\n      mstore\n      dup1\n      swap3\n      swap2\n      swap1\n      dup2\n      dup2\n      mstore\n      0x20\n      add\n      dup3\n      dup1\n      sload\n      tag_31\n      swap1\n      tag_23\n      jump\t// in\n    tag_31:\n      dup1\n      iszero\n      tag_32\n      jumpi\n      dup1\n      0x1f\n      lt\n      tag_33\n      jumpi\n      0x0100\n      dup1\n      dup4\n      sload\n      div\n      mul\n      dup4\n      mstore\n      swap2\n      0x20\n      add\n      swap2\n      jump(tag_32)\n    tag_33:\n      dup3\n      add\n      swap2\n      swap1\n      0x00\n      mstore\n      keccak256(0x00, 0x20)\n      swap1\n    tag_34:\n      dup2\n      sload\n      dup2\n      mstore\n      swap1\n      0x01\n      add\n      swap1\n      0x20\n      add\n      dup1\n      dup4\n      gt\n      tag_34\n      jumpi\n      dup3\n      swap1\n      sub\n      0x1f\n      and\n      dup3\n      add\n      swap2\n    tag_32:\n      pop\n      pop\n      pop\n      pop\n      pop\n      swap1\n      pop\n        /* \"age.sol\":215:297  function getname()public view returns(string memory){\r... */\n      swap1\n      jump\t// out\n        /* \"#utility.yul\":7:146   */\n    tag_36:\n      0x00\n        /* \"#utility.yul\":91:97   */\n      dup2\n        /* \"#utility.yul\":78:98   */\n      calldataload\n        /* \"#utility.yul\":69:98   */\n      swap1\n      pop\n        /* \"#utility.yul\":107:140   */\n      tag_38\n        /* \"#utility.yul\":134:139   */\n      dup2\n        /* \"#utility.yul\":107:140   */\n      tag_39\n      jump\t// in\n    tag_38:\n        /* \"#utility.yul\":59:146   */\n      swap3\n      swap2\n      pop\n      pop\n      jump\t// out\n        /* \"#utility.yul\":152:414   */\n    tag_17:\n      0x00\n        /* \"#utility.yul\":260:262   */\n      0x20\n        /* \"#utility.yul\":248:257   */\n      dup3\n        /* \"#utility.yul\":239:246   */\n      dup5\n        /* \"#utility.yul\":235:258   */\n      sub\n        /* \"#utility.yul\":231:263   */\n      slt\n        /* \"#utility.yul\":228:230   */\n      iszero\n      tag_41\n      jumpi\n        /* \"#utility.yul\":276:277   */\n      0x00\n        /* \"#utility.yul\":273:274   */\n      dup1\n        /* \"#utility.yul\":266:278   */\n      revert\n        /* \"#utility.yul\":228:230   */\n    tag_41:\n        /* \"#utility.yul\":319:320   */\n      0x00\n        /* \"#utility.yul\":344:397   */\n      tag_42\n        /* \"#utility.yul\":389:396   */\n      dup5\n        /* \"#utility.yul\":380:386   */\n      dup3\n        /* \"#utility.yul\":369:378   */\n      dup6\n        /* \"#utility.yul\":365:387   */\n      add\n        /* \"#utility.yul\":344:397   */\n      tag_36\n      jump\t// in\n    tag_42:\n        /* \"#utility.yul\":334:397   */\n      swap2\n      pop\n        /* \"#utility.yul\":290:407   */\n      pop\n        /* \"#utility.yul\":218:414   */\n      swap3\n      swap2\n      pop\n      pop\n      jump\t// out\n        /* \"#utility.yul\":420:784   */\n    tag_43:\n      0x00\n        /* \"#utility.yul\":536:575   */\n      tag_45\n        /* \"#utility.yul\":569:574   */\n      dup3\n        /* \"#utility.yul\":536:575   */\n      tag_46\n      jump\t// in\n    tag_45:\n        /* \"#utility.yul\":591:662   */\n      tag_47\n        /* \"#utility.yul\":655:661   */\n      dup2\n        /* \"#utility.yul\":650:653   */\n      dup6\n        /* \"#utility.yul\":591:662   */\n      tag_48\n      jump\t// in\n    tag_47:\n        /* \"#utility.yul\":584:662   */\n      swap4\n      pop\n        /* \"#utility.yul\":671:723   */\n      tag_49\n        /* \"#utility.yul\":716:722   */\n      dup2\n        /* \"#utility.yul\":711:714   */\n      dup6\n        /* \"#utility.yul\":704:708   */\n      0x20\n        /* \"#utility.yul\":697:702   */\n      dup7\n        /* \"#utility.yul\":693:709   */\n      add\n        /* \"#utility.yul\":671:723   */\n      tag_50\n      jump\t// in\n    tag_49:\n        /* \"#utility.yul\":748:777   */\n      tag_51\n        /* \"#utility.yul\":770:776   */\n      dup2\n        /* \"#utility.yul\":748:777   */\n      tag_52\n      jump\t// in\n    tag_51:\n        /* \"#utility.yul\":743:746   */\n      dup5\n        /* \"#utility.yul\":739:778   */\n      add\n        /* \"#utility.yul\":732:778   */\n      swap2\n      pop\n        /* \"#utility.yul\":512:784   */\n      pop\n      swap3\n      swap2\n      pop\n      pop\n      jump\t// out\n        /* \"#utility.yul\":790:908   */\n    tag_53:\n        /* \"#utility.yul\":877:901   */\n      tag_55\n        /* \"#utility.yul\":895:900   */\n      dup2\n        /* \"#utility.yul\":877:901   */\n      tag_56\n      jump\t// in\n    tag_55:\n        /* \"#utility.yul\":872:875   */\n      dup3\n        /* \"#utility.yul\":865:902   */\n      mstore\n        /* \"#utility.yul\":855:908   */\n      pop\n      pop\n      jump\t// out\n        /* \"#utility.yul\":914:1227   */\n    tag_10:\n      0x00\n        /* \"#utility.yul\":1065:1067   */\n      0x20\n        /* \"#utility.yul\":1054:1063   */\n      dup3\n        /* \"#utility.yul\":1050:1068   */\n      add\n        /* \"#utility.yul\":1042:1068   */\n      swap1\n      pop\n        /* \"#utility.yul\":1114:1123   */\n      dup2\n        /* \"#utility.yul\":1108:1112   */\n      dup2\n        /* \"#utility.yul\":1104:1124   */\n      sub\n        /* \"#utility.yul\":1100:1101   */\n      0x00\n        /* \"#utility.yul\":1089:1098   */\n      dup4\n        /* \"#utility.yul\":1085:1102   */\n      add\n        /* \"#utility.yul\":1078:1125   */\n      mstore\n        /* \"#utility.yul\":1142:1220   */\n      tag_58\n        /* \"#utility.yul\":1215:1219   */\n      dup2\n        /* \"#utility.yul\":1206:1212   */\n      dup5\n        /* \"#utility.yul\":1142:1220   */\n      tag_43\n      jump\t// in\n    tag_58:\n        /* \"#utility.yul\":1134:1220   */\n      swap1\n      pop\n        /* \"#utility.yul\":1032:1227   */\n      swap3\n      swap2\n      pop\n      pop\n      jump\t// out\n        /* \"#utility.yul\":1233:1455   */\n    tag_14:\n      0x00\n        /* \"#utility.yul\":1364:1366   */\n      0x20\n        /* \"#utility.yul\":1353:1362   */\n      dup3\n        /* \"#utility.yul\":1349:1367   */\n      add\n        /* \"#utility.yul\":1341:1367   */\n      swap1\n      pop\n        /* \"#utility.yul\":1377:1448   */\n      tag_60\n        /* \"#utility.yul\":1445:1446   */\n      0x00\n        /* \"#utility.yul\":1434:1443   */\n      dup4\n        /* \"#utility.yul\":1430:1447   */\n      add\n        /* \"#utility.yul\":1421:1427   */\n      dup5\n        /* \"#utility.yul\":1377:1448   */\n      tag_53\n      jump\t// in\n    tag_60:\n        /* \"#utility.yul\":1331:1455   */\n      swap3\n      swap2\n      pop\n      pop\n      jump\t// out\n        /* \"#utility.yul\":1461:1560   */\n    tag_46:\n      0x00\n        /* \"#utility.yul\":1547:1552   */\n      dup2\n        /* \"#utility.yul\":1541:1553   */\n      mload\n        /* \"#utility.yul\":1531:1553   */\n      swap1\n      pop\n        /* \"#utility.yul\":1520:1560   */\n      swap2\n      swap1\n      pop\n      jump\t// out\n        /* \"#utility.yul\":1566:1735   */\n    tag_48:\n      0x00\n        /* \"#utility.yul\":1684:1690   */\n      dup3\n        /* \"#utility.yul\":1679:1682   */\n      dup3\n        /* \"#utility.yul\":1672:1691   */\n      mstore\n        /* \"#utility.yul\":1724:1728   */\n      0x20\n        /* \"#utility.yul\":1719:1722   */\n      dup3\n        /* \"#utility.yul\":1715:1729   */\n      add\n        /* \"#utility.yul\":1700:1729   */\n      swap1\n      pop\n        /* \"#utility.yul\":1662:1735   */\n      swap3\n      swap2\n      pop\n      pop\n      jump\t// out\n        /* \"#utility.yul\":1741:1818   */\n    tag_56:\n      0x00\n        /* \"#utility.yul\":1807:1812   */\n      dup2\n        /* \"#utility.yul\":1796:1812   */\n      swap1\n      pop\n        /* \"#utility.yul\":1786:1818   */\n      swap2\n      swap1\n      pop\n      jump\t// out\n        /* \"#utility.yul\":1824:2131   */\n    tag_50:\n        /* \"#utility.yul\":1892:1893   */\n      0x00\n        /* \"#utility.yul\":1902:2015   */\n    tag_65:\n        /* \"#utility.yul\":1916:1922   */\n      dup4\n        /* \"#utility.yul\":1913:1914   */\n      dup2\n        /* \"#utility.yul\":1910:1923   */\n      lt\n        /* \"#utility.yul\":1902:2015   */\n      iszero\n      tag_67\n      jumpi\n        /* \"#utility.yul\":2001:2002   */\n      dup1\n        /* \"#utility.yul\":1996:1999   */\n      dup3\n        /* \"#utility.yul\":1992:2003   */\n      add\n        /* \"#utility.yul\":1986:2004   */\n      mload\n        /* \"#utility.yul\":1982:1983   */\n      dup2\n        /* \"#utility.yul\":1977:1980   */\n      dup5\n        /* \"#utility.yul\":1973:1984   */\n      add\n        /* \"#utility.yul\":1966:2005   */\n      mstore\n        /* \"#utility.yul\":1938:1940   */\n      0x20\n        /* \"#utility.yul\":1935:1936   */\n      dup2\n        /* \"#utility.yul\":1931:1941   */\n      add\n        /* \"#utility.yul\":1926:1941   */\n      swap1\n      pop\n        /* \"#utility.yul\":1902:2015   */\n      jump(tag_65)\n    tag_67:\n        /* \"#utility.yul\":2033:2039   */\n      dup4\n        /* \"#utility.yul\":2030:2031   */\n      dup2\n        /* \"#utility.yul\":2027:2040   */\n      gt\n        /* \"#utility.yul\":2024:2026   */\n      iszero\n      tag_68\n      jumpi\n        /* \"#utility.yul\":2113:2114   */\n      0x00\n        /* \"#utility.yul\":2104:2110   */\n      dup5\n        /* \"#utility.yul\":2099:2102   */\n      dup5\n        /* \"#utility.yul\":2095:2111   */\n      add\n        /* \"#utility.yul\":2088:2115   */\n      mstore\n        /* \"#utility.yul\":2024:2026   */\n    tag_68:\n        /* \"#utility.yul\":1873:2131   */\n      pop\n      pop\n      pop\n      pop\n      jump\t// out\n        /* \"#utility.yul\":2137:2457   */\n    tag_23:\n      0x00\n        /* \"#utility.yul\":2218:2219   */\n      0x02\n        /* \"#utility.yul\":2212:2216   */\n      dup3\n        /* \"#utility.yul\":2208:2220   */\n      div\n        /* \"#utility.yul\":2198:2220   */\n      swap1\n      pop\n        /* \"#utility.yul\":2265:2266   */\n      0x01\n        /* \"#utility.yul\":2259:2263   */\n      dup3\n        /* \"#utility.yul\":2255:2267   */\n      and\n        /* \"#utility.yul\":2286:2304   */\n      dup1\n        /* \"#utility.yul\":2276:2278   */\n      tag_70\n      jumpi\n        /* \"#utility.yul\":2342:2346   */\n      0x7f\n        /* \"#utility.yul\":2334:2340   */\n      dup3\n        /* \"#utility.yul\":2330:2347   */\n      and\n        /* \"#utility.yul\":2320:2347   */\n      swap2\n      pop\n        /* \"#utility.yul\":2276:2278   */\n    tag_70:\n        /* \"#utility.yul\":2404:2406   */\n      0x20\n        /* \"#utility.yul\":2396:2402   */\n      dup3\n        /* \"#utility.yul\":2393:2407   */\n      lt\n        /* \"#utility.yul\":2373:2391   */\n      dup2\n        /* \"#utility.yul\":2370:2408   */\n      eq\n        /* \"#utility.yul\":2367:2369   */\n      iszero\n      tag_71\n      jumpi\n        /* \"#utility.yul\":2423:2441   */\n      tag_72\n      tag_73\n      jump\t// in\n    tag_72:\n        /* \"#utility.yul\":2367:2369   */\n    tag_71:\n        /* \"#utility.yul\":2188:2457   */\n      pop\n      swap2\n      swap1\n      pop\n      jump\t// out\n        /* \"#utility.yul\":2463:2643   */\n    tag_73:\n        /* \"#utility.yul\":2511:2588   */\n      0x4e487b7100000000000000000000000000000000000000000000000000000000\n        /* \"#utility.yul\":2508:2509   */\n      0x00\n        /* \"#utility.yul\":2501:2589   */\n      mstore\n        /* \"#utility.yul\":2608:2612   */\n      0x22\n        /* \"#utility.yul\":2605:2606   */\n      0x04\n        /* \"#utility.yul\":2598:2613   */\n      mstore\n        /* \"#utility.yul\":2632:2636   */\n      0x24\n        /* \"#utility.yul\":2629:2630   */\n      0x00\n        /* \"#utility.yul\":2622:2637   */\n      revert\n        /* \"#utility.yul\":2649:2751   */\n    tag_52:\n      0x00\n        /* \"#utility.yul\":2741:2743   */\n      0x1f\n        /* \"#utility.yul\":2737:2744   */\n      not\n        /* \"#utility.yul\":2732:2734   */\n      0x1f\n        /* \"#utility.yul\":2725:2730   */\n      dup4\n        /* \"#utility.yul\":2721:2735   */\n      add\n        /* \"#utility.yul\":2717:2745   */\n      and\n        /* \"#utility.yul\":2707:2745   */\n      swap1\n      pop\n        /* \"#utility.yul\":2697:2751   */\n      swap2\n      swap1\n      pop\n      jump\t// out\n        /* \"#utility.yul\":2757:2879   */\n    tag_39:\n        /* \"#utility.yul\":2830:2854   */\n      tag_77\n        /* \"#utility.yul\":2848:2853   */\n      dup2\n        /* \"#utility.yul\":2830:2854   */\n      tag_56\n      jump\t// in\n    tag_77:\n        /* \"#utility.yul\":2823:2828   */\n      dup2\n        /* \"#utility.yul\":2820:2855   */\n      eq\n        /* \"#utility.yul\":2810:2812   */\n      tag_78\n      jumpi\n        /* \"#utility.yul\":2869:2870   */\n      0x00\n        /* \"#utility.yul\":2866:2867   */\n      dup1\n        /* \"#utility.yul\":2859:2871   */\n      revert\n        /* \"#utility.yul\":2810:2812   */\n    tag_78:\n        /* \"#utility.yul\":2800:2879   */\n      pop\n      jump\t// out\n\n    auxdata: 0xa264697066735822122081ce94f43db489ec2a7448ddc419b99e499f2e8be280ce99bc4aa9e8a284823b64736f6c63430008000033\n}\n",
				"bytecode": {
					"linkReferences": {},
					"object": "60806040526040518060400160405280600781526020017f53616468616e61000000000000000000000000000000000000000000000000008152506000908051906020019061004f929190610067565b50601460015534801561006157600080fd5b5061016b565b8280546100739061010a565b90600052602060002090601f01602090048101928261009557600085556100dc565b82601f106100ae57805160ff19168380011785556100dc565b828001600101855582156100dc579182015b828111156100db5782518255916020019190600101906100c0565b5b5090506100e991906100ed565b5090565b5b808211156101065760008160009055506001016100ee565b5090565b6000600282049050600182168061012257607f821691505b602082108114156101365761013561013c565b5b50919050565b7f4e487b7100000000000000000000000000000000000000000000000000000000600052602260045260246000fd5b6103d28061017a6000396000f3fe608060405234801561001057600080fd5b506004361061004c5760003560e01c806306fdde0314610051578063262a9dff1461006f57806382ab890a1461008d578063c6ea59b9146100a9575b600080fd5b6100596100c7565b604051610066919061027d565b60405180910390f35b610077610155565b604051610084919061029f565b60405180910390f35b6100a760048036038101906100a2919061020c565b61015b565b005b6100b1610165565b6040516100be919061027d565b60405180910390f35b600080546100d490610313565b80601f016020809104026020016040519081016040528092919081815260200182805461010090610313565b801561014d5780601f106101225761010080835404028352916020019161014d565b820191906000526020600020905b81548152906001019060200180831161013057829003601f168201915b505050505081565b60015481565b8060018190555050565b60606000805461017490610313565b80601f01602080910402602001604051908101604052809291908181526020018280546101a090610313565b80156101ed5780601f106101c2576101008083540402835291602001916101ed565b820191906000526020600020905b8154815290600101906020018083116101d057829003601f168201915b5050505050905090565b60008135905061020681610385565b92915050565b60006020828403121561021e57600080fd5b600061022c848285016101f7565b91505092915050565b6000610240826102ba565b61024a81856102c5565b935061025a8185602086016102e0565b61026381610374565b840191505092915050565b610277816102d6565b82525050565b600060208201905081810360008301526102978184610235565b905092915050565b60006020820190506102b4600083018461026e565b92915050565b600081519050919050565b600082825260208201905092915050565b6000819050919050565b60005b838110156102fe5780820151818401526020810190506102e3565b8381111561030d576000848401525b50505050565b6000600282049050600182168061032b57607f821691505b6020821081141561033f5761033e610345565b5b50919050565b7f4e487b7100000000000000000000000000000000000000000000000000000000600052602260045260246000fd5b6000601f19601f8301169050919050565b61038e816102d6565b811461039957600080fd5b5056fea264697066735822122081ce94f43db489ec2a7448ddc419b99e499f2e8be280ce99bc4aa9e8a284823b64736f6c63430008000033",
					"opcodes": "PUSH1 0x80 PUSH1 0x40 MSTORE PUSH1 0x40 MLOAD DUP1 PUSH1 0x40 ADD PUSH1 0x40 MSTORE DUP1 PUSH1 0x7 DUP2 MSTORE PUSH1 0x20 ADD PUSH32 0x53616468616E6100000000000000000000000000000000000000000000000000 DUP2 MSTORE POP PUSH1 0x0 SWAP1 DUP1 MLOAD SWAP1 PUSH1 0x20 ADD SWAP1 PUSH2 0x4F SWAP3 SWAP2 SWAP1 PUSH2 0x67 JUMP JUMPDEST POP PUSH1 0x14 PUSH1 0x1 SSTORE CALLVALUE DUP1 ISZERO PUSH2 0x61 JUMPI PUSH1 0x0 DUP1 REVERT JUMPDEST POP PUSH2 0x16B JUMP JUMPDEST DUP3 DUP1 SLOAD PUSH2 0x73 SWAP1 PUSH2 0x10A JUMP JUMPDEST SWAP1 PUSH1 0x0 MSTORE PUSH1 0x20 PUSH1 0x0 KECCAK256 SWAP1 PUSH1 0x1F ADD PUSH1 0x20 SWAP1 DIV DUP2 ADD SWAP3 DUP3 PUSH2 0x95 JUMPI PUSH1 0x0 DUP6 SSTORE PUSH2 0xDC JUMP JUMPDEST DUP3 PUSH1 0x1F LT PUSH2 0xAE JUMPI DUP1 MLOAD PUSH1 0xFF NOT AND DUP4 DUP1 ADD OR DUP6 SSTORE PUSH2 0xDC JUMP JUMPDEST DUP3 DUP1 ADD PUSH1 0x1 ADD DUP6 SSTORE DUP3 ISZERO PUSH2 0xDC JUMPI SWAP2 DUP3 ADD JUMPDEST DUP3 DUP2 GT ISZERO PUSH2 0xDB JUMPI DUP3 MLOAD DUP3 SSTORE SWAP2 PUSH1 0x20 ADD SWAP2 SWAP1 PUSH1 0x1 ADD SWAP1 PUSH2 0xC0 JUMP JUMPDEST JUMPDEST POP SWAP1 POP PUSH2 0xE9 SWAP2 SWAP1 PUSH2 0xED JUMP JUMPDEST POP SWAP1 JUMP JUMPDEST JUMPDEST DUP1 DUP3 GT ISZERO PUSH2 0x106 JUMPI PUSH1 0x0 DUP2 PUSH1 0x0 SWAP1 SSTORE POP PUSH1 0x1 ADD PUSH2 0xEE JUMP JUMPDEST POP SWAP1 JUMP JUMPDEST PUSH1 0x0 PUSH1 0x2 DUP3 DIV SWAP1 POP PUSH1 0x1 DUP3 AND DUP1 PUSH2 0x122 JUMPI PUSH1 0x7F DUP3 AND SWAP2 POP JUMPDEST PUSH1 0x20 DUP3 LT DUP2 EQ ISZERO PUSH2 0x136 JUMPI PUSH2 0x135 PUSH2 0x13C JUMP JUMPDEST JUMPDEST POP SWAP2 SWAP1 POP JUMP JUMPDEST PUSH32 0x4E487B7100000000000000000000000000000000000000000000000000000000 PUSH1 0x0 MSTORE PUSH1 0x22 PUSH1 0x4 MSTORE PUSH1 0x24 PUSH1 0x0 REVERT JUMPDEST PUSH2 0x3D2 DUP1 PUSH2 0x17A PUSH1 0x0 CODECOPY PUSH1 0x0 RETURN INVALID PUSH1 0x80 PUSH1 0x40 MSTORE CALLVALUE DUP1 ISZERO PUSH2 0x10 JUMPI PUSH1 0x0 DUP1 REVERT JUMPDEST POP PUSH1 0x4 CALLDATASIZE LT PUSH2 0x4C JUMPI PUSH1 0x0 CALLDATALOAD PUSH1 0xE0 SHR DUP1 PUSH4 0x6FDDE03 EQ PUSH2 0x51 JUMPI DUP1 PUSH4 0x262A9DFF EQ PUSH2 0x6F JUMPI DUP1 PUSH4 0x82AB890A EQ PUSH2 0x8D JUMPI DUP1 PUSH4 0xC6EA59B9 EQ PUSH2 0xA9 JUMPI JUMPDEST PUSH1 0x0 DUP1 REVERT JUMPDEST PUSH2 0x59 PUSH2 0xC7 JUMP JUMPDEST PUSH1 0x40 MLOAD PUSH2 0x66 SWAP2 SWAP1 PUSH2 0x27D JUMP JUMPDEST PUSH1 0x40 MLOAD DUP1 SWAP2 SUB SWAP1 RETURN JUMPDEST PUSH2 0x77 PUSH2 0x155 JUMP JUMPDEST PUSH1 0x40 MLOAD PUSH2 0x84 SWAP2 SWAP1 PUSH2 0x29F JUMP JUMPDEST PUSH1 0x40 MLOAD DUP1 SWAP2 SUB SWAP1 RETURN JUMPDEST PUSH2 0xA7 PUSH1 0x4 DUP1 CALLDATASIZE SUB DUP2 ADD SWAP1 PUSH2 0xA2 SWAP2 SWAP1 PUSH2 0x20C JUMP JUMPDEST PUSH2 0x15B JUMP JUMPDEST STOP JUMPDEST PUSH2 0xB1 PUSH2 0x165 JUMP JUMPDEST PUSH1 0x40 MLOAD PUSH2 0xBE SWAP2 SWAP1 PUSH2 0x27D JUMP JUMPDEST PUSH1 0x40 MLOAD DUP1 SWAP2 SUB SWAP1 RETURN JUMPDEST PUSH1 0x0 DUP1 SLOAD PUSH2 0xD4 SWAP1 PUSH2 0x313 JUMP JUMPDEST DUP1 PUSH1 0x1F ADD PUSH1 0x20 DUP1 SWAP2 DIV MUL PUSH1 0x20 ADD PUSH1 0x40 MLOAD SWAP1 DUP2 ADD PUSH1 0x40 MSTORE DUP1 SWAP3 SWAP2 SWAP1 DUP2 DUP2 MSTORE PUSH1 0x20 ADD DUP3 DUP1 SLOAD PUSH2 0x100 SWAP1 PUSH2 0x313 JUMP JUMPDEST DUP1 ISZERO PUSH2 0x14D JUMPI DUP1 PUSH1 0x1F LT PUSH2 0x122 JUMPI PUSH2 0x100 DUP1 DUP4 SLOAD DIV MUL DUP4 MSTORE SWAP2 PUSH1 0x20 ADD SWAP2 PUSH2 0x14D JUMP JUMPDEST DUP3 ADD SWAP2 SWAP1 PUSH1 0x0 MSTORE PUSH1 0x20 PUSH1 0x0 KECCAK256 SWAP1 JUMPDEST DUP2 SLOAD DUP2 MSTORE SWAP1 PUSH1 0x1 ADD SWAP1 PUSH1 0x20 ADD DUP1 DUP4 GT PUSH2 0x130 JUMPI DUP3 SWAP1 SUB PUSH1 0x1F AND DUP3 ADD SWAP2 JUMPDEST POP POP POP POP POP DUP2 JUMP JUMPDEST PUSH1 0x1 SLOAD DUP2 JUMP JUMPDEST DUP1 PUSH1 0x1 DUP2 SWAP1 SSTORE POP POP JUMP JUMPDEST PUSH1 0x60 PUSH1 0x0 DUP1 SLOAD PUSH2 0x174 SWAP1 PUSH2 0x313 JUMP JUMPDEST DUP1 PUSH1 0x1F ADD PUSH1 0x20 DUP1 SWAP2 DIV MUL PUSH1 0x20 ADD PUSH1 0x40 MLOAD SWAP1 DUP2 ADD PUSH1 0x40 MSTORE DUP1 SWAP3 SWAP2 SWAP1 DUP2 DUP2 MSTORE PUSH1 0x20 ADD DUP3 DUP1 SLOAD PUSH2 0x1A0 SWAP1 PUSH2 0x313 JUMP JUMPDEST DUP1 ISZERO PUSH2 0x1ED JUMPI DUP1 PUSH1 0x1F LT PUSH2 0x1C2 JUMPI PUSH2 0x100 DUP1 DUP4 SLOAD DIV MUL DUP4 MSTORE SWAP2 PUSH1 0x20 ADD SWAP2 PUSH2 0x1ED JUMP JUMPDEST DUP3 ADD SWAP2 SWAP1 PUSH1 0x0 MSTORE PUSH1 0x20 PUSH1 0x0 KECCAK256 SWAP1 JUMPDEST DUP2 SLOAD DUP2 MSTORE SWAP1 PUSH1 0x1 ADD SWAP1 PUSH1 0x20 ADD DUP1 DUP4 GT PUSH2 0x1D0 JUMPI DUP3 SWAP1 SUB PUSH1 0x1F AND DUP3 ADD SWAP2 JUMPDEST POP POP POP POP POP SWAP1 POP SWAP1 JUMP JUMPDEST PUSH1 0x0 DUP2 CALLDATALOAD SWAP1 POP PUSH2 0x206 DUP2 PUSH2 0x385 JUMP JUMPDEST SWAP3 SWAP2 POP POP JUMP JUMPDEST PUSH1 0x0 PUSH1 0x20 DUP3 DUP5 SUB SLT ISZERO PUSH2 0x21E JUMPI PUSH1 0x0 DUP1 REVERT JUMPDEST PUSH1 0x0 PUSH2 0x22C DUP5 DUP3 DUP6 ADD PUSH2 0x1F7 JUMP JUMPDEST SWAP2 POP POP SWAP3 SWAP2 POP POP JUMP JUMPDEST PUSH1 0x0 PUSH2 0x240 DUP3 PUSH2 0x2BA JUMP JUMPDEST PUSH2 0x24A DUP2 DUP6 PUSH2 0x2C5 JUMP JUMPDEST SWAP4 POP PUSH2 0x25A DUP2 DUP6 PUSH1 0x20 DUP7 ADD PUSH2 0x2E0 JUMP JUMPDEST PUSH2 0x263 DUP2 PUSH2 0x374 JUMP JUMPDEST DUP5 ADD SWAP2 POP POP SWAP3 SWAP2 POP POP JUMP JUMPDEST PUSH2 0x277 DUP2 PUSH2 0x2D6 JUMP JUMPDEST DUP3 MSTORE POP POP JUMP JUMPDEST PUSH1 0x0 PUSH1 0x20 DUP3 ADD SWAP1 POP DUP2 DUP2 SUB PUSH1 0x0 DUP4 ADD MSTORE PUSH2 0x297 DUP2 DUP5 PUSH2 0x235 JUMP JUMPDEST SWAP1 POP SWAP3 SWAP2 POP POP JUMP JUMPDEST PUSH1 0x0 PUSH1 0x20 DUP3 ADD SWAP1 POP PUSH2 0x2B4 PUSH1 0x0 DUP4 ADD DUP5 PUSH2 0x26E JUMP JUMPDEST SWAP3 SWAP2 POP POP JUMP JUMPDEST PUSH1 0x0 DUP2 MLOAD SWAP1 POP SWAP2 SWAP1 POP JUMP JUMPDEST PUSH1 0x0 DUP3 DUP3 MSTORE PUSH1 0x20 DUP3 ADD SWAP1 POP SWAP3 SWAP2 POP POP JUMP JUMPDEST PUSH1 0x0 DUP2 SWAP1 POP SWAP2 SWAP1 POP JUMP JUMPDEST PUSH1 0x0 JUMPDEST DUP4 DUP2 LT ISZERO PUSH2 0x2FE JUMPI DUP1 DUP3 ADD MLOAD DUP2 DUP5 ADD MSTORE PUSH1 0x20 DUP2 ADD SWAP1 POP PUSH2 0x2E3 JUMP JUMPDEST DUP4 DUP2 GT ISZERO PUSH2 0x30D JUMPI PUSH1 0x0 DUP5 DUP5 ADD MSTORE JUMPDEST POP POP POP POP JUMP JUMPDEST PUSH1 0x0 PUSH1 0x2 DUP3 DIV SWAP1 POP PUSH1 0x1 DUP3 AND DUP1 PUSH2 0x32B JUMPI PUSH1 0x7F DUP3 AND SWAP2 POP JUMPDEST PUSH1 0x20 DUP3 LT DUP2 EQ ISZERO PUSH2 0x33F JUMPI PUSH2 0x33E PUSH2 0x345 JUMP JUMPDEST JUMPDEST POP SWAP2 SWAP1 POP JUMP JUMPDEST PUSH32 0x4E487B7100000000000000000000000000000000000000000000000000000000 PUSH1 0x0 MSTORE PUSH1 0x22 PUSH1 0x4 MSTORE PUSH1 0x24 PUSH1 0x0 REVERT JUMPDEST PUSH1 0x0 PUSH1 0x1F NOT PUSH1 0x1F DUP4 ADD AND SWAP1 POP SWAP2 SWAP1 POP JUMP JUMPDEST PUSH2 0x38E DUP2 PUSH2 0x2D6 JUMP JUMPDEST DUP2 EQ PUSH2 0x399 JUMPI PUSH1 0x0 DUP1 REVERT JUMPDEST POP JUMP INVALID LOG2 PUSH5 0x6970667358 0x22 SLT KECCAK256 DUP2 0xCE SWAP5 DELEGATECALL RETURNDATASIZE 0xB4 DUP10 0xEC 0x2A PUSH21 0x48DDC419B99E499F2E8BE280CE99BC4AA9E8A28482 EXTCODESIZE PUSH5 0x736F6C6343 STOP ADDMOD STOP STOP CALLER "
				},
				"gasEstimates": {
					"creation": {
						"codeDepositCost": "195600",
						"executionCost": "infinite",
						"totalCost": "infinite"
					},
					"external": {
						"age()": "1129",
						"getname()": "infinite",
						"name()": "infinite",
						"update(uint256)": "20442"
					}
				},
				"methodIdentifiers": {
					"age()": "262a9dff",
					"getname()": "c6ea59b9",
					"name()": "06fdde03",
					"update(uint256)": "82ab890a"
				}
			},
			"storageLayout": {
				"storage": [
					{
						"astId": 4,
						"contract": "age.sol:practice",
						"label": "name",
						"offset": 0,
						"slot": "0",
						"type": "t_string_storage"
					},
					{
						"astId": 7,
						"contract": "age.sol:practice",
						"label": "age",
						"offset": 0,
						"slot": "1",
						"type": "t_uint256"
					}
				],
				"types": {
					"t_string_storage": {
						"encoding": "bytes",
						"label": "string",
						"numberOfBytes": "32"
					},
					"t_uint256": {
						"encoding": "inplace",
						"label": "uint256",
						"numberOfBytes": "32"
					}
				}
			},
			"userdoc": {
				"kind": "user",
				"methods": {},
				"version": 1
			}
		}
	}
}